{
  "_format": "hh-sol-artifact-1",
  "contractName": "Assessment",
  "sourceName": "contracts/Assessment.sol",
  "abi": [
    {
      "inputs": [
        {
          "internalType": "uint256",
          "name": "initBalance",
          "type": "uint256"
        }
      ],
      "stateMutability": "payable",
      "type": "constructor"
    },
    {
      "inputs": [
        {
          "internalType": "uint256",
          "name": "balance",
          "type": "uint256"
        },
        {
          "internalType": "uint256",
          "name": "withdrawAmount",
          "type": "uint256"
        }
      ],
      "name": "InsufficientBalance",
      "type": "error"
    },
    {
      "anonymous": false,
      "inputs": [
        {
          "indexed": false,
          "internalType": "uint256",
          "name": "amount",
          "type": "uint256"
        }
      ],
      "name": "Deposit",
      "type": "event"
    },
    {
      "anonymous": false,
      "inputs": [
        {
          "indexed": true,
          "internalType": "address",
          "name": "recipient",
          "type": "address"
        },
        {
          "indexed": false,
          "internalType": "uint256",
          "name": "amount",
          "type": "uint256"
        }
      ],
      "name": "TransferBalance",
      "type": "event"
    },
    {
      "anonymous": false,
      "inputs": [
        {
          "indexed": false,
          "internalType": "uint256",
          "name": "amount",
          "type": "uint256"
        }
      ],
      "name": "Withdraw",
      "type": "event"
    },
    {
      "inputs": [],
      "name": "balance",
      "outputs": [
        {
          "internalType": "uint256",
          "name": "",
          "type": "uint256"
        }
      ],
      "stateMutability": "view",
      "type": "function"
    },
    {
      "inputs": [
        {
          "internalType": "uint256",
          "name": "_amount",
          "type": "uint256"
        }
      ],
      "name": "deposit",
      "outputs": [],
      "stateMutability": "payable",
      "type": "function"
    },
    {
      "inputs": [],
      "name": "getBalance",
      "outputs": [
        {
          "internalType": "uint256",
          "name": "",
          "type": "uint256"
        }
      ],
      "stateMutability": "view",
      "type": "function"
    },
    {
      "inputs": [],
      "name": "isContractOwner",
      "outputs": [
        {
          "internalType": "bool",
          "name": "",
          "type": "bool"
        }
      ],
      "stateMutability": "view",
      "type": "function"
    },
    {
      "inputs": [],
      "name": "owner",
      "outputs": [
        {
          "internalType": "address payable",
          "name": "",
          "type": "address"
        }
      ],
      "stateMutability": "view",
      "type": "function"
    },
    {
      "inputs": [
        {
          "internalType": "address",
          "name": "_recipient",
          "type": "address"
        },
        {
          "internalType": "uint256",
          "name": "_amount",
          "type": "uint256"
        }
      ],
      "name": "transferBalance",
      "outputs": [],
      "stateMutability": "nonpayable",
      "type": "function"
    },
    {
      "inputs": [
        {
          "internalType": "uint256",
          "name": "_withdrawAmount",
          "type": "uint256"
        }
      ],
      "name": "withdraw",
      "outputs": [],
      "stateMutability": "nonpayable",
      "type": "function"
    }
  ],
  "bytecode": "0x6080604052604051610adb380380610adb833981810160405281019061002591906100ad565b336000806101000a81548173ffffffffffffffffffffffffffffffffffffffff021916908373ffffffffffffffffffffffffffffffffffffffff16021790555080600181905550506100da565b600080fd5b6000819050919050565b61008a81610077565b811461009557600080fd5b50565b6000815190506100a781610081565b92915050565b6000602082840312156100c3576100c2610072565b5b60006100d184828501610098565b91505092915050565b6109f2806100e96000396000f3fe6080604052600436106100705760003560e01c80637f7dcdbf1161004e5780637f7dcdbf146100f25780638da5cb5b1461011d578063b69ef8a814610148578063b6b55f251461017357610070565b806312065fe0146100755780632e1a7d4d146100a057806356a6d9ef146100c9575b600080fd5b34801561008157600080fd5b5061008a61018f565b604051610097919061060f565b60405180910390f35b3480156100ac57600080fd5b506100c760048036038101906100c2919061065b565b610199565b005b3480156100d557600080fd5b506100f060048036038101906100eb91906106e6565b6102ea565b005b3480156100fe57600080fd5b5061010761046f565b6040516101149190610741565b60405180910390f35b34801561012957600080fd5b506101326104c6565b60405161013f919061077d565b60405180910390f35b34801561015457600080fd5b5061015d6104ea565b60405161016a919061060f565b60405180910390f35b61018d6004803603810190610188919061065b565b6104f0565b005b6000600154905090565b60008054906101000a900473ffffffffffffffffffffffffffffffffffffffff1673ffffffffffffffffffffffffffffffffffffffff163373ffffffffffffffffffffffffffffffffffffffff1614610227576040517f08c379a000000000000000000000000000000000000000000000000000000000815260040161021e9061081b565b60405180910390fd5b6000600154905081600154101561027957600154826040517fcf47918100000000000000000000000000000000000000000000000000000000815260040161027092919061083b565b60405180910390fd5b816001600082825461028b9190610893565b92505081905550818161029e9190610893565b600154146102af576102ae6108c7565b5b7f5b6b431d4476a211bb7d41c20d1aab9ae2321deee0d20be3d9fc9b1093fa6e3d826040516102de919061060f565b60405180910390a15050565b60008054906101000a900473ffffffffffffffffffffffffffffffffffffffff1673ffffffffffffffffffffffffffffffffffffffff163373ffffffffffffffffffffffffffffffffffffffff1614610378576040517f08c379a000000000000000000000000000000000000000000000000000000000815260040161036f9061081b565b60405180910390fd5b6001548111156103bd576040517f08c379a00000000000000000000000000000000000000000000000000000000081526004016103b490610968565b60405180910390fd5b80600160008282546103cf9190610893565b925050819055508173ffffffffffffffffffffffffffffffffffffffff166108fc829081150290604051600060405180830381858888f1935050505015801561041c573d6000803e3d6000fd5b508173ffffffffffffffffffffffffffffffffffffffff167fec5cd143316aaf3d51add82b3510d4165455628ea20bd4d3a8a6d88a23239acf82604051610463919061060f565b60405180910390a25050565b60008060009054906101000a900473ffffffffffffffffffffffffffffffffffffffff1673ffffffffffffffffffffffffffffffffffffffff163373ffffffffffffffffffffffffffffffffffffffff1614905090565b60008054906101000a900473ffffffffffffffffffffffffffffffffffffffff1681565b60015481565b6000600154905060008054906101000a900473ffffffffffffffffffffffffffffffffffffffff1673ffffffffffffffffffffffffffffffffffffffff163373ffffffffffffffffffffffffffffffffffffffff1614610585576040517f08c379a000000000000000000000000000000000000000000000000000000000815260040161057c9061081b565b60405180910390fd5b81600160008282546105979190610988565b9250508190555081816105aa9190610988565b600154146105bb576105ba6108c7565b5b7f4d6ce1e535dbade1c23defba91e23b8f791ce5edc0cc320257a2b364e4e38426826040516105ea919061060f565b60405180910390a15050565b6000819050919050565b610609816105f6565b82525050565b60006020820190506106246000830184610600565b92915050565b600080fd5b610638816105f6565b811461064357600080fd5b50565b6000813590506106558161062f565b92915050565b6000602082840312156106715761067061062a565b5b600061067f84828501610646565b91505092915050565b600073ffffffffffffffffffffffffffffffffffffffff82169050919050565b60006106b382610688565b9050919050565b6106c3816106a8565b81146106ce57600080fd5b50565b6000813590506106e0816106ba565b92915050565b600080604083850312156106fd576106fc61062a565b5b600061070b858286016106d1565b925050602061071c85828601610646565b9150509250929050565b60008115159050919050565b61073b81610726565b82525050565b60006020820190506107566000830184610732565b92915050565b600061076782610688565b9050919050565b6107778161075c565b82525050565b6000602082019050610792600083018461076e565b92915050565b600082825260208201905092915050565b7f596f7520617265206e6f7420746865206f776e6572206f66207468697320616360008201527f636f756e74000000000000000000000000000000000000000000000000000000602082015250565b6000610805602583610798565b9150610810826107a9565b604082019050919050565b60006020820190508181036000830152610834816107f8565b9050919050565b60006040820190506108506000830185610600565b61085d6020830184610600565b9392505050565b7f4e487b7100000000000000000000000000000000000000000000000000000000600052601160045260246000fd5b600061089e826105f6565b91506108a9836105f6565b92508282039050818111156108c1576108c0610864565b5b92915050565b7f4e487b7100000000000000000000000000000000000000000000000000000000600052600160045260246000fd5b7f496e73756666696369656e742062616c616e636520666f72207472616e73666560008201527f7200000000000000000000000000000000000000000000000000000000000000602082015250565b6000610952602183610798565b915061095d826108f6565b604082019050919050565b6000602082019050818103600083015261098181610945565b9050919050565b6000610993826105f6565b915061099e836105f6565b92508282019050808211156109b6576109b5610864565b5b9291505056fea26469706673582212201ba713294ebd67821b746f143d0a7ec9d39c21932028c9ac731d7dcbb6c307ed64736f6c63430008110033",
  "linkReferences": {},
  "deployedLinkReferences": {}
}